{
  "contractName": "Library",
  "abi": [
    {
      "constant": true,
      "inputs": [
        {
          "name": "",
          "type": "address"
        }
      ],
      "name": "isTrustedLibrarian",
      "outputs": [
        {
          "name": "",
          "type": "bool"
        }
      ],
      "payable": false,
      "stateMutability": "view",
      "type": "function"
    },
    {
      "constant": true,
      "inputs": [
        {
          "name": "",
          "type": "address"
        }
      ],
      "name": "librarians",
      "outputs": [
        {
          "name": "librarian",
          "type": "address"
        },
        {
          "name": "name",
          "type": "string"
        }
      ],
      "payable": false,
      "stateMutability": "view",
      "type": "function"
    },
    {
      "constant": true,
      "inputs": [
        {
          "name": "",
          "type": "uint256"
        }
      ],
      "name": "books",
      "outputs": [
        {
          "name": "id",
          "type": "uint256"
        },
        {
          "name": "title",
          "type": "string"
        },
        {
          "name": "category",
          "type": "string"
        },
        {
          "name": "status",
          "type": "string"
        },
        {
          "name": "bookLoanedTo",
          "type": "address"
        },
        {
          "name": "owner",
          "type": "address"
        }
      ],
      "payable": false,
      "stateMutability": "view",
      "type": "function"
    },
    {
      "constant": false,
      "inputs": [],
      "name": "renounceOwnership",
      "outputs": [],
      "payable": false,
      "stateMutability": "nonpayable",
      "type": "function"
    },
    {
      "constant": true,
      "inputs": [],
      "name": "owner",
      "outputs": [
        {
          "name": "",
          "type": "address"
        }
      ],
      "payable": false,
      "stateMutability": "view",
      "type": "function"
    },
    {
      "constant": false,
      "inputs": [
        {
          "name": "_newOwner",
          "type": "address"
        }
      ],
      "name": "transferOwnership",
      "outputs": [],
      "payable": false,
      "stateMutability": "nonpayable",
      "type": "function"
    },
    {
      "inputs": [],
      "payable": false,
      "stateMutability": "nonpayable",
      "type": "constructor"
    },
    {
      "anonymous": false,
      "inputs": [
        {
          "indexed": false,
          "name": "id",
          "type": "uint256"
        },
        {
          "indexed": false,
          "name": "loanedTo",
          "type": "address"
        }
      ],
      "name": "loanBookEvent",
      "type": "event"
    },
    {
      "anonymous": false,
      "inputs": [
        {
          "indexed": false,
          "name": "id",
          "type": "uint256"
        },
        {
          "indexed": false,
          "name": "title",
          "type": "string"
        },
        {
          "indexed": false,
          "name": "category",
          "type": "string"
        },
        {
          "indexed": false,
          "name": "status",
          "type": "string"
        }
      ],
      "name": "addBookEvent",
      "type": "event"
    },
    {
      "anonymous": false,
      "inputs": [
        {
          "indexed": false,
          "name": "name",
          "type": "string"
        },
        {
          "indexed": false,
          "name": "librarian",
          "type": "address"
        }
      ],
      "name": "librarianAddedEvent",
      "type": "event"
    },
    {
      "anonymous": false,
      "inputs": [
        {
          "indexed": true,
          "name": "previousOwner",
          "type": "address"
        }
      ],
      "name": "OwnershipRenounced",
      "type": "event"
    },
    {
      "anonymous": false,
      "inputs": [
        {
          "indexed": true,
          "name": "previousOwner",
          "type": "address"
        },
        {
          "indexed": true,
          "name": "newOwner",
          "type": "address"
        }
      ],
      "name": "OwnershipTransferred",
      "type": "event"
    },
    {
      "constant": false,
      "inputs": [
        {
          "name": "addr",
          "type": "address"
        },
        {
          "name": "name",
          "type": "string"
        }
      ],
      "name": "createLibrarian",
      "outputs": [],
      "payable": false,
      "stateMutability": "nonpayable",
      "type": "function"
    },
    {
      "constant": true,
      "inputs": [
        {
          "name": "addr",
          "type": "address"
        }
      ],
      "name": "getLibrarianNameByAddr",
      "outputs": [
        {
          "name": "",
          "type": "string"
        }
      ],
      "payable": false,
      "stateMutability": "view",
      "type": "function"
    },
    {
      "constant": false,
      "inputs": [
        {
          "name": "addr",
          "type": "address"
        }
      ],
      "name": "removeLibrarian",
      "outputs": [],
      "payable": false,
      "stateMutability": "nonpayable",
      "type": "function"
    },
    {
      "constant": false,
      "inputs": [
        {
          "name": "sku",
          "type": "uint256"
        },
        {
          "name": "_title",
          "type": "string"
        },
        {
          "name": "_category",
          "type": "string"
        },
        {
          "name": "_status",
          "type": "string"
        },
        {
          "name": "borrower",
          "type": "address"
        },
        {
          "name": "bookOwner",
          "type": "address"
        }
      ],
      "name": "addBook",
      "outputs": [],
      "payable": false,
      "stateMutability": "nonpayable",
      "type": "function"
    },
    {
      "constant": false,
      "inputs": [
        {
          "name": "id",
          "type": "uint256"
        }
      ],
      "name": "removeBook",
      "outputs": [],
      "payable": false,
      "stateMutability": "nonpayable",
      "type": "function"
    },
    {
      "constant": false,
      "inputs": [
        {
          "name": "id",
          "type": "uint256"
        },
        {
          "name": "_status",
          "type": "string"
        }
      ],
      "name": "updateBookDamage",
      "outputs": [],
      "payable": false,
      "stateMutability": "nonpayable",
      "type": "function"
    },
    {
      "constant": true,
      "inputs": [
        {
          "name": "id",
          "type": "uint256"
        }
      ],
      "name": "checkBookStatus",
      "outputs": [
        {
          "name": "",
          "type": "string"
        }
      ],
      "payable": false,
      "stateMutability": "view",
      "type": "function"
    },
    {
      "constant": true,
      "inputs": [
        {
          "name": "id",
          "type": "uint256"
        }
      ],
      "name": "checkBookTitle",
      "outputs": [
        {
          "name": "",
          "type": "string"
        }
      ],
      "payable": false,
      "stateMutability": "view",
      "type": "function"
    },
    {
      "constant": false,
      "inputs": [
        {
          "name": "id",
          "type": "uint256"
        },
        {
          "name": "_borrower",
          "type": "address"
        }
      ],
      "name": "loanBook",
      "outputs": [],
      "payable": false,
      "stateMutability": "nonpayable",
      "type": "function"
    },
    {
      "constant": false,
      "inputs": [
        {
          "name": "id",
          "type": "uint256"
        },
        {
          "name": "_librarian",
          "type": "address"
        }
      ],
      "name": "returnBook",
      "outputs": [],
      "payable": false,
      "stateMutability": "nonpayable",
      "type": "function"
    },
    {
      "constant": true,
      "inputs": [
        {
          "name": "id",
          "type": "uint256"
        }
      ],
      "name": "checkBorrower",
      "outputs": [
        {
          "name": "",
          "type": "address"
        }
      ],
      "payable": false,
      "stateMutability": "view",
      "type": "function"
    },
    {
      "constant": false,
      "inputs": [
        {
          "name": "id",
          "type": "uint256"
        },
        {
          "name": "newOwner",
          "type": "address"
        }
      ],
      "name": "transferBookOwnership",
      "outputs": [],
      "payable": false,
      "stateMutability": "nonpayable",
      "type": "function"
    },
    {
      "constant": true,
      "inputs": [
        {
          "name": "id",
          "type": "uint256"
        }
      ],
      "name": "checkCurrentOwner",
      "outputs": [
        {
          "name": "",
          "type": "address"
        }
      ],
      "payable": false,
      "stateMutability": "view",
      "type": "function"
    },
    {
      "constant": true,
      "inputs": [],
      "name": "getBookCount",
      "outputs": [
        {
          "name": "",
          "type": "uint256"
        }
      ],
      "payable": false,
      "stateMutability": "view",
      "type": "function"
    }
  ],
  "bytecode": "0x608060405234801561001057600080fd5b50336000806101000a81548173ffffffffffffffffffffffffffffffffffffffff021916908373ffffffffffffffffffffffffffffffffffffffff160217905550336000806101000a81548173ffffffffffffffffffffffffffffffffffffffff021916908373ffffffffffffffffffffffffffffffffffffffff160217905550612076806100a06000396000f300608060405260043610610112576000357c0100000000000000000000000000000000000000000000000000000000900463ffffffff1680630a3eafd81461011757806326271aa8146101725780633fb8351c1461022e5780634fbf351d1461027b578063547483d8146102e85780635d40e3c11461038e578063687440461461047d578063694da82214610668578063715018a6146106d557806384fbf248146106ec5780638da5cb5b146107925780638e213268146107e95780638e5d5fe01461083657806394e26d5714610883578063bb956931146108f6578063bec0d7991461097f578063d73e0c89146109ac578063e8d5cb40146109d7578063ed24061b14610a1a578063f2fde38b14610b59575b600080fd5b34801561012357600080fd5b50610158600480360381019080803573ffffffffffffffffffffffffffffffffffffffff169060200190929190505050610b9c565b604051808215151515815260200191505060405180910390f35b34801561017e57600080fd5b506101b3600480360381019080803573ffffffffffffffffffffffffffffffffffffffff169060200190929190505050610bbc565b6040518080602001828103825283818151815260200191508051906020019080838360005b838110156101f35780820151818401526020810190506101d8565b50505050905090810190601f1680156102205780820380516001836020036101000a031916815260200191505b509250505060405180910390f35b34801561023a57600080fd5b5061027960048036038101908080359060200190929190803573ffffffffffffffffffffffffffffffffffffffff169060200190929190505050610ca0565b005b34801561028757600080fd5b506102a660048036038101908080359060200190929190505050610d54565b604051808273ffffffffffffffffffffffffffffffffffffffff1673ffffffffffffffffffffffffffffffffffffffff16815260200191505060405180910390f35b3480156102f457600080fd5b5061031360048036038101908080359060200190929190505050610d94565b6040518080602001828103825283818151815260200191508051906020019080838360005b83811015610353578082015181840152602081019050610338565b50505050905090810190601f1680156103805780820380516001836020036101000a031916815260200191505b509250505060405180910390f35b34801561039a57600080fd5b506103cf600480360381019080803573ffffffffffffffffffffffffffffffffffffffff169060200190929190505050610e4c565b604051808373ffffffffffffffffffffffffffffffffffffffff1673ffffffffffffffffffffffffffffffffffffffff16815260200180602001828103825283818151815260200191508051906020019080838360005b83811015610441578082015181840152602081019050610426565b50505050905090810190601f16801561046e5780820380516001836020036101000a031916815260200191505b50935050505060405180910390f35b34801561048957600080fd5b506104a860048036038101908080359060200190929190505050610f28565b604051808781526020018060200180602001806020018673ffffffffffffffffffffffffffffffffffffffff1673ffffffffffffffffffffffffffffffffffffffff1681526020018573ffffffffffffffffffffffffffffffffffffffff1673ffffffffffffffffffffffffffffffffffffffff168152602001848103845289818151815260200191508051906020019080838360005b8381101561055a57808201518184015260208101905061053f565b50505050905090810190601f1680156105875780820380516001836020036101000a031916815260200191505b50848103835288818151815260200191508051906020019080838360005b838110156105c05780820151818401526020810190506105a5565b50505050905090810190601f1680156105ed5780820380516001836020036101000a031916815260200191505b50848103825287818151815260200191508051906020019080838360005b8381101561062657808201518184015260208101905061060b565b50505050905090810190601f1680156106535780820380516001836020036101000a031916815260200191505b50995050505050505050505060405180910390f35b34801561067457600080fd5b506106936004803603810190808035906020019092919050505061116c565b604051808273ffffffffffffffffffffffffffffffffffffffff1673ffffffffffffffffffffffffffffffffffffffff16815260200191505060405180910390f35b3480156106e157600080fd5b506106ea6111ac565b005b3480156106f857600080fd5b50610717600480360381019080803590602001909291905050506112ae565b6040518080602001828103825283818151815260200191508051906020019080838360005b8381101561075757808201518184015260208101905061073c565b50505050905090810190601f1680156107845780820380516001836020036101000a031916815260200191505b509250505060405180910390f35b34801561079e57600080fd5b506107a7611366565b604051808273ffffffffffffffffffffffffffffffffffffffff1673ffffffffffffffffffffffffffffffffffffffff16815260200191505060405180910390f35b3480156107f557600080fd5b5061083460048036038101908080359060200190929190803573ffffffffffffffffffffffffffffffffffffffff16906020019092919050505061138b565b005b34801561084257600080fd5b5061088160048036038101908080359060200190929190803573ffffffffffffffffffffffffffffffffffffffff16906020019092919050505061145a565b005b34801561088f57600080fd5b506108f460048036038101908080359060200190929190803590602001908201803590602001908080601f0160208091040260200160405190810160405280939291908181526020018383808284378201915050505050509192919290505050611576565b005b34801561090257600080fd5b5061097d600480360381019080803573ffffffffffffffffffffffffffffffffffffffff169060200190929190803590602001908201803590602001908080601f01602080910402602001604051908101604052809392919081815260200183838082843782019150505050505091929192905050506115fd565b005b34801561098b57600080fd5b506109aa60048036038101908080359060200190929190505050611855565b005b3480156109b857600080fd5b506109c16118f4565b6040518082815260200191505060405180910390f35b3480156109e357600080fd5b50610a18600480360381019080803573ffffffffffffffffffffffffffffffffffffffff1690602001909291905050506118fe565b005b348015610a2657600080fd5b50610b5760048036038101908080359060200190929190803590602001908201803590602001908080601f0160208091040260200160405190810160405280939291908181526020018383808284378201915050505050509192919290803590602001908201803590602001908080601f0160208091040260200160405190810160405280939291908181526020018383808284378201915050505050509192919290803590602001908201803590602001908080601f0160208091040260200160405190810160405280939291908181526020018383808284378201915050505050509192919290803573ffffffffffffffffffffffffffffffffffffffff169060200190929190803573ffffffffffffffffffffffffffffffffffffffff169060200190929190505050611a2d565b005b348015610b6557600080fd5b50610b9a600480360381019080803573ffffffffffffffffffffffffffffffffffffffff169060200190929190505050611d7c565b005b60046020528060005260406000206000915054906101000a900460ff1681565b6060600260008373ffffffffffffffffffffffffffffffffffffffff1673ffffffffffffffffffffffffffffffffffffffff1681526020019081526020016000206001018054600181600116156101000203166002900480601f016020809104026020016040519081016040528092919081815260200182805460018160011615610100020316600290048015610c945780601f10610c6957610100808354040283529160200191610c94565b820191906000526020600020905b815481529060010190602001808311610c7757829003601f168201915b50505050509050919050565b6000809054906101000a900473ffffffffffffffffffffffffffffffffffffffff1673ffffffffffffffffffffffffffffffffffffffff163373ffffffffffffffffffffffffffffffffffffffff16141515610cfb57600080fd5b806003600084815260200190815260200160002060050160006101000a81548173ffffffffffffffffffffffffffffffffffffffff021916908373ffffffffffffffffffffffffffffffffffffffff1602179055505050565b60006003600083815260200190815260200160002060040160009054906101000a900473ffffffffffffffffffffffffffffffffffffffff169050919050565b6060600360008381526020019081526020016000206001018054600181600116156101000203166002900480601f016020809104026020016040519081016040528092919081815260200182805460018160011615610100020316600290048015610e405780601f10610e1557610100808354040283529160200191610e40565b820191906000526020600020905b815481529060010190602001808311610e2357829003601f168201915b50505050509050919050565b60026020528060005260406000206000915090508060000160009054906101000a900473ffffffffffffffffffffffffffffffffffffffff1690806001018054600181600116156101000203166002900480601f016020809104026020016040519081016040528092919081815260200182805460018160011615610100020316600290048015610f1e5780601f10610ef357610100808354040283529160200191610f1e565b820191906000526020600020905b815481529060010190602001808311610f0157829003601f168201915b5050505050905082565b6003602052806000526040600020600091509050806000015490806001018054600181600116156101000203166002900480601f016020809104026020016040519081016040528092919081815260200182805460018160011615610100020316600290048015610fda5780601f10610faf57610100808354040283529160200191610fda565b820191906000526020600020905b815481529060010190602001808311610fbd57829003601f168201915b505050505090806002018054600181600116156101000203166002900480601f0160208091040260200160405190810160405280929190818152602001828054600181600116156101000203166002900480156110785780601f1061104d57610100808354040283529160200191611078565b820191906000526020600020905b81548152906001019060200180831161105b57829003601f168201915b505050505090806003018054600181600116156101000203166002900480601f0160208091040260200160405190810160405280929190818152602001828054600181600116156101000203166002900480156111165780601f106110eb57610100808354040283529160200191611116565b820191906000526020600020905b8154815290600101906020018083116110f957829003601f168201915b5050505050908060040160009054906101000a900473ffffffffffffffffffffffffffffffffffffffff16908060050160009054906101000a900473ffffffffffffffffffffffffffffffffffffffff16905086565b60006003600083815260200190815260200160002060050160009054906101000a900473ffffffffffffffffffffffffffffffffffffffff169050919050565b6000809054906101000a900473ffffffffffffffffffffffffffffffffffffffff1673ffffffffffffffffffffffffffffffffffffffff163373ffffffffffffffffffffffffffffffffffffffff1614151561120757600080fd5b6000809054906101000a900473ffffffffffffffffffffffffffffffffffffffff1673ffffffffffffffffffffffffffffffffffffffff167ff8df31144d9c2f0f6b59d69b8b98abd5459d07f2742c4df920b25aae33c6482060405160405180910390a260008060006101000a81548173ffffffffffffffffffffffffffffffffffffffff021916908373ffffffffffffffffffffffffffffffffffffffff160217905550565b6060600360008381526020019081526020016000206003018054600181600116156101000203166002900480601f01602080910402602001604051908101604052809291908181526020018280546001816001161561010002031660029004801561135a5780601f1061132f5761010080835404028352916020019161135a565b820191906000526020600020905b81548152906001019060200180831161133d57829003601f168201915b50505050509050919050565b6000809054906101000a900473ffffffffffffffffffffffffffffffffffffffff1681565b60006003600084815260200190815260200160002060040160009054906101000a900473ffffffffffffffffffffffffffffffffffffffff1690503373ffffffffffffffffffffffffffffffffffffffff168173ffffffffffffffffffffffffffffffffffffffff1614151561140057600080fd5b816003600085815260200190815260200160002060040160006101000a81548173ffffffffffffffffffffffffffffffffffffffff021916908373ffffffffffffffffffffffffffffffffffffffff160217905550505050565b600460003373ffffffffffffffffffffffffffffffffffffffff1673ffffffffffffffffffffffffffffffffffffffff16815260200190815260200160002060009054906101000a900460ff1615156114b257600080fd5b806003600084815260200190815260200160002060040160006101000a81548173ffffffffffffffffffffffffffffffffffffffff021916908373ffffffffffffffffffffffffffffffffffffffff1602179055507f9e83756e67a87ff7c6faacee59aa55bc22879ff151799d14fc630740789c86e58282604051808381526020018273ffffffffffffffffffffffffffffffffffffffff1673ffffffffffffffffffffffffffffffffffffffff1681526020019250505060405180910390a15050565b600460003373ffffffffffffffffffffffffffffffffffffffff1673ffffffffffffffffffffffffffffffffffffffff16815260200190815260200160002060009054906101000a900460ff1615156115ce57600080fd5b806003600084815260200190815260200160002060030190805190602001906115f8929190611edd565b505050565b6000809054906101000a900473ffffffffffffffffffffffffffffffffffffffff1673ffffffffffffffffffffffffffffffffffffffff163373ffffffffffffffffffffffffffffffffffffffff1614151561165857600080fd5b60408051908101604052808373ffffffffffffffffffffffffffffffffffffffff16815260200182815250600260008473ffffffffffffffffffffffffffffffffffffffff1673ffffffffffffffffffffffffffffffffffffffff16815260200190815260200160002060008201518160000160006101000a81548173ffffffffffffffffffffffffffffffffffffffff021916908373ffffffffffffffffffffffffffffffffffffffff1602179055506020820151816001019080519060200190611725929190611f5d565b509050506001600460008473ffffffffffffffffffffffffffffffffffffffff1673ffffffffffffffffffffffffffffffffffffffff16815260200190815260200160002060006101000a81548160ff0219169083151502179055507f4460375654d99fb33353834ca95bc4a2ad93fbc6393bde0cc4783465f750345e818360405180806020018373ffffffffffffffffffffffffffffffffffffffff1673ffffffffffffffffffffffffffffffffffffffff168152602001828103825284818151815260200191508051906020019080838360005b838110156118165780820151818401526020810190506117fb565b50505050905090810190601f1680156118435780820380516001836020036101000a031916815260200191505b50935050505060405180910390a15050565b600360008281526020019081526020016000206000808201600090556001820160006118819190611fdd565b6002820160006118919190611fdd565b6003820160006118a19190611fdd565b6004820160006101000a81549073ffffffffffffffffffffffffffffffffffffffff02191690556005820160006101000a81549073ffffffffffffffffffffffffffffffffffffffff0219169055505050565b6000600154905090565b6000809054906101000a900473ffffffffffffffffffffffffffffffffffffffff1673ffffffffffffffffffffffffffffffffffffffff163373ffffffffffffffffffffffffffffffffffffffff1614151561195957600080fd5b6000600460008373ffffffffffffffffffffffffffffffffffffffff1673ffffffffffffffffffffffffffffffffffffffff16815260200190815260200160002060006101000a81548160ff021916908315150217905550600260008273ffffffffffffffffffffffffffffffffffffffff1673ffffffffffffffffffffffffffffffffffffffff168152602001908152602001600020600080820160006101000a81549073ffffffffffffffffffffffffffffffffffffffff0219169055600182016000611a289190611fdd565b505050565b600460003373ffffffffffffffffffffffffffffffffffffffff1673ffffffffffffffffffffffffffffffffffffffff16815260200190815260200160002060009054906101000a900460ff161515611a8557600080fd5b60c0604051908101604052808781526020018681526020018581526020018481526020018373ffffffffffffffffffffffffffffffffffffffff1681526020018273ffffffffffffffffffffffffffffffffffffffff1681525060036000888152602001908152602001600020600082015181600001556020820151816001019080519060200190611b18929190611f5d565b506040820151816002019080519060200190611b35929190611f5d565b506060820151816003019080519060200190611b52929190611f5d565b5060808201518160040160006101000a81548173ffffffffffffffffffffffffffffffffffffffff021916908373ffffffffffffffffffffffffffffffffffffffff16021790555060a08201518160050160006101000a81548173ffffffffffffffffffffffffffffffffffffffff021916908373ffffffffffffffffffffffffffffffffffffffff1602179055509050507fd5266769ca23d1117c2d85e051d576597ba5c891afb02a94112c99c9687ab1998686868660405180858152602001806020018060200180602001848103845287818151815260200191508051906020019080838360005b83811015611c57578082015181840152602081019050611c3c565b50505050905090810190601f168015611c845780820380516001836020036101000a031916815260200191505b50848103835286818151815260200191508051906020019080838360005b83811015611cbd578082015181840152602081019050611ca2565b50505050905090810190601f168015611cea5780820380516001836020036101000a031916815260200191505b50848103825285818151815260200191508051906020019080838360005b83811015611d23578082015181840152602081019050611d08565b50505050905090810190601f168015611d505780820380516001836020036101000a031916815260200191505b5097505050505050505060405180910390a1600160008154809291906001019190505550505050505050565b6000809054906101000a900473ffffffffffffffffffffffffffffffffffffffff1673ffffffffffffffffffffffffffffffffffffffff163373ffffffffffffffffffffffffffffffffffffffff16141515611dd757600080fd5b611de081611de3565b50565b600073ffffffffffffffffffffffffffffffffffffffff168173ffffffffffffffffffffffffffffffffffffffff1614151515611e1f57600080fd5b8073ffffffffffffffffffffffffffffffffffffffff166000809054906101000a900473ffffffffffffffffffffffffffffffffffffffff1673ffffffffffffffffffffffffffffffffffffffff167f8be0079c531659141344cd1fd0a4f28419497f9722a3daafe3b4186f6b6457e060405160405180910390a3806000806101000a81548173ffffffffffffffffffffffffffffffffffffffff021916908373ffffffffffffffffffffffffffffffffffffffff16021790555050565b828054600181600116156101000203166002900490600052602060002090601f016020900481019282601f10611f1e57805160ff1916838001178555611f4c565b82800160010185558215611f4c579182015b82811115611f4b578251825591602001919060010190611f30565b5b509050611f599190612025565b5090565b828054600181600116156101000203166002900490600052602060002090601f016020900481019282601f10611f9e57805160ff1916838001178555611fcc565b82800160010185558215611fcc579182015b82811115611fcb578251825591602001919060010190611fb0565b5b509050611fd99190612025565b5090565b50805460018160011615610100020316600290046000825580601f106120035750612022565b601f0160209004906000526020600020908101906120219190612025565b5b50565b61204791905b8082111561204357600081600090555060010161202b565b5090565b905600a165627a7a72305820105af23fe5a171470ef3f24d50c9c4c869de14103bd04ff1a97ab6b51064d52b0029",
  "source": "pragma solidity ^0.4.24;\n/* pragma solidity ^0.4.23; */\n\nimport 'openzeppelin-solidity/contracts/ownership/Ownable.sol';\n\ncontract Library is Ownable {\n  constructor() {\n    owner = msg.sender;\n  }\n\n  struct Book {\n    uint id;\n    string title;\n    string category;\n    string status;\n    address bookLoanedTo;\n    address owner;\n  }\n\n  struct Librarian {\n    address librarian;\n    string name;\n  }\n\n  uint bookCounter;\n\n  mapping(address => Librarian) public librarians;\n  mapping(uint => Book) public books;\n  mapping(address => bool) public isTrustedLibrarian;\n\n  event loanBookEvent(\n    uint id,\n    address loanedTo\n  );\n\n  event addBookEvent(\n    uint id,\n    string title,\n    string category,\n    string status\n  );\n\n  event librarianAddedEvent(\n    string name,\n    address librarian\n  );\n\n  modifier onlyLibrarian {\n    require(isTrustedLibrarian[msg.sender]);\n    _;\n  }\n\n  function createLibrarian(address addr, string name) public onlyOwner {\n    librarians[addr] = Librarian({librarian: addr, name: name});\n    isTrustedLibrarian[addr] = true;\n    emit librarianAddedEvent(name, addr);\n  }\n\n  function getLibrarianNameByAddr(address addr) public view returns (string) {\n    return librarians[addr].name;\n  }\n\n  function removeLibrarian(address addr) public onlyOwner {\n    isTrustedLibrarian[addr] = false;\n    delete librarians[addr];\n  }\n\n  function addBook(uint sku, string _title, string _category, string _status, address borrower, address bookOwner) public onlyLibrarian {\n    books[sku] = Book({id: sku, title: _title, category: _category, status: _status, bookLoanedTo: borrower, owner: bookOwner});\n    emit addBookEvent(sku, _title, _category, _status);\n    bookCounter++;\n  }\n\n  function removeBook(uint id) public {\n    delete books[id];\n  }\n\n  function updateBookDamage(uint id, string _status) public onlyLibrarian {\n    books[id].status = _status;\n  }\n\n  function checkBookStatus(uint id) public view returns (string) {\n    return books[id].status;\n  }\n\n  function checkBookTitle(uint id) public view returns (string) {\n    return books[id].title;\n  }\n\n  function loanBook(uint id, address _borrower) public onlyLibrarian {\n    books[id].bookLoanedTo = _borrower;\n    emit loanBookEvent(id, _borrower);\n  }\n\n  function returnBook(uint id, address _librarian) public {\n    address bookLoanedTo = books[id].bookLoanedTo;\n    require(bookLoanedTo == msg.sender);\n    books[id].bookLoanedTo = _librarian;\n  }\n\n  function checkBorrower(uint id) public view returns (address) {\n    return books[id].bookLoanedTo;\n  }\n\n  function transferBookOwnership(uint id, address newOwner) public onlyOwner {\n    books[id].owner = newOwner;\n  }\n\n  function checkCurrentOwner(uint id) public view returns (address) {\n    return books[id].owner;\n  }\n\n  function getBookCount() public constant returns (uint) {\n    return bookCounter;\n  }\n\n  /* function getBooksAvailable() public constant returns (uint[]) {\n    if (bookCounter == 0) {\n      return new uint[](0);\n    }\n\n    uint[] memory bookIds = new uint[](bookCounter);\n\n    uint numberOfBooks = 0;\n    for (uint i = 1; i <= bookCounter; i++) {\n      bookIds[numberOfBooks] = books[i].id;\n      numberOfBooks++;\n    }\n\n    uint[] memory booksAvailable = new uint[](numberOfBooks);\n    for (uint j = 0; j < numberOfBooks; j++) {\n      booksAvailable[j] = bookIds[j];\n    }\n    return (booksAvailable);\n  } */\n }\n",
  "sourcePath": "/Users/randallkanna/Documents/code/eth/library/contracts/Library.sol",
  "compiler": {
    "name": "solc",
    "version": "0.4.24+commit.e67f0147.Emscripten.clang"
  },
  "schemaVersion": "2.0.1",
  "updatedAt": "2018-09-08T20:58:07.470Z"
}